:020000040800F2
:10000000985A002055020008352200087D17000884
:10001000CD1F0008CD0B0008393F0008000000008C
:100020000000000000000000000000009D0100082A
:100030004510000800000000F10100080930000828
:100040006F0200086F0200086F0200086F020008CC
:100050006F0200086F0200086F0200086F020008BC
:100060006F0200086F0200086F0200086F020008AC
:100070006F0200086F0200086F0200086F0200089C
:100080006F0200086F0200086F0200086F0200088C
:10009000890D00086F0200086F0200086F02000857
:1000A0006F020008713400086F020008DD3000089C
:1000B0008134000891340008A53400086F0200085C
:1000C0006F0200086F0200086F0200086F0200084C
:1000D0006F020008E93A0008DD3B0008E13C000837
:1000E0006F0200086F0200086F0200086F0200082C
:1000F0006F0200086F0200086F0200086F0200081C
:100100006F0200086F020008B93400086F0200088F
:10011000E93900086F0200086F0200086F0200084A
:100120006F0200086F0200086F0200086F020008EB
:100130006F0200086F0200086F0200086F020008DB
:100140006F0200086F0200086F0200086F020008CB
:100150006F0200086F0200086F0200086F020008BB
:100160006F0200086F0200086F0200086F020008AB
:100170006F0200086F0200086F0200086F0200089B
:100180006F0200086F020008DFF80CD000F0B6FA2A
:100190000048004749440008985A00202A4B196833
:1001A0000868B0E8F04F80F30988BFF36F8F4FF015
:1001B000000080F3118870470000000006480068C6
:1001C000006880F3088862B661B6BFF34F8FBFF353
:1001D0006F8F00DF00BF00BF08ED00E0DFF80C000C
:1001E000016841F470010160704700BF88ED00E0D4
:1001F000EFF30980BFF36F8F134B1A681EF0100FD7
:1002000008BF20ED108A20E9F04F106008B44FF0CD
:10021000500080F31188BFF34F8FBFF36F8F05F04D
:10022000F7FC4FF0000080F3118808BC19680868DB
:10023000B0E8F04F1EF0100F08BFB0EC108A80F34A
:100240000988BFF36F8F7047C8000020EFF3058067
:10025000704700000648804706480047FEE7FEE773
:10026000FEE7FEE7FEE7FEE7FEE7FEE7FEE7FEE766
:100270001D3000088901000840EA01039B0703D0F4
:1002800009E008C9121F08C0042AFAD203E011F8D5
:10029000013B00F8013B521EF9D27047D2B201E097
:1002A00000F8012B491EFBD270470022F6E710B57B
:1002B00013460A4604461946FFF7F0FF204610BDD4
:1002C0002DE9FE4F804681EA0300C00F0C460090E6
:1002D00021F0004123F00045B8EB0200A94105D20E
:1002E0004046214690461C460B46024623F00040FD
:1002F000104347D0270DC7F30A00C3F30A510290F9
:10030000401A019040286BDAC3F3130040F4801BBD
:100310000098924620B10023D2EB030A63EB0B0B4B
:1003200001985946C0F14002504600F032F90646A5
:100330000D4650465946019A00F03AF910EB080074
:100340006141002487EA115284EAE7731A4340D0DE
:10035000009A62B3019A012A4FEA075215DC001B8A
:1003600061EB02014FF0004202EA0752CDE9004280
:10037000001C41F5801132462B4600F071F903B0A4
:10038000BDE8F08F40462146F9E7001B61EB020112
:10039000001C41F5801300185B412018A2F50017DE
:1003A00047EB030140EAD570B6196D4111E06D08C5
:1003B0004FEA360645EAC0754FEA0752001B61EB6B
:1003C0000201001C41F5801149084FEA3000001974
:1003D000514132462B4603B0BDE8F04F00F031B931
:1003E0000098012240000023D0EB020263EBE0738F
:1003F000009821464FEAE074B8EB000061EB04017D
:10040000E9E783F000435BE781F0004158E72DE91D
:10041000FE4F81EA030404F0004421F000410094FF
:100420004FF0000B23F0004350EA01045ED052EA83
:1004300003045BD0C3F30A54C1F30A552C44A4F25D
:10044000F3340194A0FB0254C1F3130141F4801171
:10045000C3F3130343F4801301FB024400FB034E78
:10046000840A970A44EA815447EA8357A4FB076841
:1004700002958D0A05FB07854FEA932C04FB0C546B
:100480002705029D4FEA065847EA1637B5EB0805DF
:100490006EEB070C870E920E47EA811742EA831231
:1004A000A7FB0201B6EB0B0164EB00042B0D43EA42
:1004B0000C335E1844EB1C50DA465146E7FB020150
:1004C000C5F313044FEA0B3343EA14534FEA0432E3
:1004D000019C43EA0603A4F10C040294009CCDE9BC
:1004E00000B400F0BDF803B0BDE8F08F0020014675
:1004F000F9E70EB5C10F80EAE0700844CA07002191
:1005000040F233438DE80E000A460B4600F0A8F88F
:1005100003B000BD0EB540F2334102910021CDE998
:1005200000110A460B4600F09BF803B000BD01F035
:10053000004330B421F0004150EA010206D00A0D18
:10054000A2F56072C1F31301002A02DC30BC002066
:100550007047440F44EAC104C100E01830BC00EB0E
:10056000C25000F037B830B50B46014600202022BB
:10057000012409E021FA02F59D4205D303FA02F5B0
:10058000491B04FA02F52844151EA2F10102F1DC10
:1005900030BD202A04DB203A00FA02F10020704727
:1005A0009140C2F1200320FA03F3194390407047B1
:1005B000202A06DBCB17203A41FA02F043EAE07327
:1005C00006E041FA02F3D040C2F120029140084314
:1005D000194670470029A8BF7047401C490008BF52
:1005E00020F00100704710B4B0FA80FC00FA0CF063
:1005F00050EA010404BF10BC704749B1CCF120049B
:1006000021FA04F411FA0CF118BF01212143084327
:10061000A3EB0C01CB1D4FEA00614FEA102042BF53
:10062000002010BC704700EBC35010440029A4BF49
:1006300010BC7047401C490008BF20F0010010BCEE
:10064000704710B5141E73F1000408DA401C41F124
:10065000000192185B411A4301D120F0010010BD46
:100660002DE9F04D92469B4611B1B1FA81F202E0BC
:10067000B0FA80F220329046FFF78BFF04460F4617
:1006800040EA0A0041EA0B0153465A46084313D098
:10069000114653EA010019D0C8F14002504600F05B
:1006A0003FF805460E46504659464246FFF771FF51
:1006B000084305D0012004E020463946BDE8F08D0E
:1006C0000020054346EAE0762C4337430A98630549
:1006D000E40AA0EB08000022FD0A44EA47540A306D
:1006E00002D500200146E9E7010510196941DDE95D
:1006F000084500196941BDE8F04DA2E7064C074DD9
:1007000006E0E06840F0010394E8070098471034E1
:10071000AC42F6D3FFF73CFD706800089068000813
:10072000202A04DB203A21FA02F00021704721FA46
:1007300002F3D040C2F120029140084319467047AD
:1007400070B58C1810F8015B15F0070301D110F893
:10075000013B2A1106D110F8012B03E010F8016BC0
:1007600001F8016B5B1EF9D12B0705D40023521E43
:100770000DD401F8013BFAE710F8013BCB1A921CAB
:1007800003E013F8015B01F8015B521EF9D5A142A9
:10079000D8D3002070BD0029816802D041F001014A
:1007A00001E021F00101816070470000084B10B5A5
:1007B000D3F8042307490A40D0E900142143D0E9C3
:1007C0000240044321431143C3F8041310BD000049
:1007D00000200140E030FCFFC06C80B27047024650
:1007E000002012680A4200D00120704730B54268EC
:1007F0000F4B0C791A400B6842EA04221343436002
:1008000082680C4B4D791A40D1E9034323438C682D
:1008100044EA4504234313438360C26A097D22F4FA
:100820007002491EC9B242EA0151C16230BD0000E6
:10083000FFFEFFFCFDF7FFC070B5072609290AD9A6
:10084000C568A1F10A0404EB4404A640B543A340E3
:100850001D43C56007E0056901EB4104A640B543AF
:10086000A3401D4305611F23072A09D2446B521E72
:1008700002EB820293409C4391400C43446370BD61
:100880000D2A09D2046BD21F02EB820293409C43D3
:1008900091400C43046370BDC46A0D3A02EB8202BE
:1008A00093409C4391400C43C46270BD816841F009
:1008B0008041816070470000F0B58DB001210420B7
:1008C00001F0D0FF0121022001F0CCFF01210F0235
:1008D000384601F0DFFF0E20032606908DF81C60DD
:1008E00000248DF81F4006A9184800F0B5FD012529
:1008F0008DF81C6006958DF81F4006A9144800F07D
:10090000ABFD0121384601F0D1FF0021384601F04E
:10091000CDFF089428040B94CDE9090408A8FFF73B
:1009200045FF8DF8044000948DF80540029404942E
:10093000084C8DF8145069462046FFF757FF0121F7
:100940002046FFF728FF0DB0F0BD00000008024070
:1009500000040240002001402DED028B82B003F024
:1009600055FDDFF8A4B140F6B83A9FED688A684EAD
:10097000DFF8A091684F694C694DDFF8A8810090BD
:100980000A21684604F072FFB069504501DA401C44
:10099000B06100F053FE9BF8000010B100F0C4FD00
:1009A00016E06148007810B101F0F4FF10E05F48F4
:1009B000007810B101F094FE0AE05D4890ED001A55
:1009C0005C48D0ED000A5C4890ED000A00F03CFB6A
:1009D00001F082F9B069A0F2E931C7290AD2F0EE3C
:1009E000480AB0EE601A9FED550A00F02DFB04F0A6
:1009F00053FA0BE0A0F2B140092807D2B0EE480A42
:100A0000B0EE401AF0EE400A00F01EFB4C4890EDAC
:100A1000000ABDEEC00A10EE100A02F0ABFF08B9E2
:100A2000706820B100231A461946184656E0D7EDE3
:100A3000040A97ED000A01F03FF800EE100AB8EE44
:100A4000C00A87ED030AD4ED040A94ED000A01F010
:100A500071F800EE100AB8EEC00A84ED030AD5ED75
:100A6000040A95ED000A01F0A3F800EE100AB8EEB2
:100A7000C00A85ED030AD8ED040A98ED000A01F0DA
:100A8000D5F800EE100AB8EEC00A88ED030A99F80E
:100A9000000030B3012824D0022822D0032820D01F
:100AA000B1EE400ABDEEC00A10EE103A95ED030A11
:100AB000B1EE400ABDEEC00A10EE102A94ED030A12
:100AC000B1EE400ABDEEC00A10EE101A97ED030A0F
:100AD000B1EE400ABDEEC00A10EE100A02F0AAF90B
:100AE0004EE7BDEEC00A10EE103A95ED030ABDEEDA
:100AF000C00A10EE102A94ED030ABDEEC00A10EEF3
:100B0000101A97ED030AE5E74D01002000000000F0
:100B10008C0100203D0100200C56002028560020AA
:100B200044560020605600204E0100204C01002059
:100B3000600100205C010020580100200AD7A33C7E
:100B4000180000201CB50121102001F08BFE4FF48D
:100B5000A050009001208DF8040000208DF80600C0
:100B60000320084C8DF805006946204600F074FC0F
:100B70002115204600F0BCFCA114204600F0B8FC72
:100B80001CBD00000010024070B50F4C4FF48055A2
:100B9000261568B1012810D0022814D12946204614
:100BA00000F0A8FC31462046BDE8704000F0A0BC33
:100BB0002946204600F09CFCF4E73146204600F030
:100BC00099FC2946EFE770BD00100240FEE70000E7
:100BD0001CB50121082001F045FE4FF40060009093
:100BE00001208DF8040000218DF8061003218DF8F6
:100BF00005108DF807006946014800F02DFC1CBD6A
:100C0000000C02402DE9F04F87B00024E8B3E1B3B7
:100C1000DAB3D3B3491E401E01F0FF09C7B2521E1A
:100C20005B1E0121D6B29DB2084601F01BFE0121D8
:100C3000480601F023FE4FF4C050049002208DF8C6
:100C400014004FF000088DF8168003208DF8150071
:100C5000DFF82CA14FF0010B8DF817B004A9504616
:100C600000F0FAFB09220B21504600F031FC09226A
:100C70000C21504600F02CFC4248C0F8008001686E
:100C800041F001010160021D0AE0FFE7012007B009
:100C9000BDE8F08F641CA4B2642C01D90220F6E7F1
:100CA0001168C907F6D001688246016001680160D9
:100CB00001680160016841F0100101600168016094
:100CC000016801602F4943461C31C1F80080D1F80A
:100CD0000080DDF840C048EA8C7CC1F800C0D1F843
:100CE00000C04CEA07670F60D1F800C04CEA095712
:100CF0000F600F6847EA06460E600E682E430E60CE
:100D0000016821F0010101604FF6F07005E0641CFC
:100D1000A4B2844201D90320B9E71168C907F6D10A
:100D20008DF80AB08DF80B308DF80CB0ADF80030AE
:100D3000ADF804305C46ADF80230ADF80630ADF8E1
:100D400008308DF80DB0684600F0F2F80D48143008
:100D5000016841F00201016014208DF818008DF83F
:100D6000194003208DF81A008DF81B4006A801F0E9
:100D700063FA01220221504600F040F9002086E784
:100D8000000002400064004070B588B002A907A8C6
:100D9000CDE9000106AB05AA04A9002000F07EF809
:100DA0000498A0F5807181395BD12F4801242F4927
:100DB0000470002008702E49304D08702D490870CD
:100DC0002D49087028709DF809009DF8081000EB67
:100DD000012212B200EE102A2A4AF8EEC00A9FED54
:100DE000280A80EE801A82ED001A9DF80B209DF8EB
:100DF0000A3002EB032212B200EE902A224AF8EEE9
:100E0000E00A80EE801A82ED001A9DF80D209DF810
:100E10000C3002EB032636B200EE906A1B4EF8EE61
:100E2000E00A80EE801A86ED001A194E3668012E0F
:100E300017D101EB002000B200EE100A15482C700B
:100E4000B8EEC00A80ED010A03EB022000B2404276
:100E500000EE100A1048B8EEC00A80ED010A00F05A
:100E6000EDFB08B070BD00004F0100204C010020D8
:100E70004D0100204E01002050010020E80100201B
:100E800000007A44580100205C010020600100202D
:100E90000C0200200C56002028560020F0B5224CF1
:100EA000DDE9057504EB0014D4F8B06516F004060E
:100EB0001670D4F8B02532D0D2080A60D4F8B01534
:100EC00001F002011970D4F8B41501F00F01397066
:100ED000D4F8B8152970D4F8B815090A6970D4F88F
:100EE000B815090CA970D4F8B815090EE970D4F832
:100EF000BC152971D4F8BC15090A6971D4F8BC1560
:100F0000090CA971D4F8BC15090EE97148B1012882
:100F100004D10648016841F020010160F0BD520D86
:100F2000CBE70248001FF5E7006000401064004076
:100F3000F0B5827A2F4D012191402A6842F00102DA
:100F40002A602C4E1C3632688A433260294A047B60
:100F5000294B0C32A4B914688C4314604488C788A8
:100F600044EA0744877A03EBC707C7F8404604887A
:100F7000878844EA0744877A03EBC707C7F84446E3
:100F8000047B012C12D114680C431460847A02682B
:100F900003EBC4044FEA3242C4F84026847A426824
:100FA00003EBC4034FEA3242C3F84426114AC37A22
:100FB000121D002B136806D00B4313600D4A0389E2
:100FC000143213B104E08B43F7E713688B431360CB
:100FD0000389012B02D113680B431360407B012866
:100FE00002D1306808433060286820F00100286092
:100FF000F0BD00000066004000600040002A426929
:1010000001D00A4300E08A434261704730B503468D
:101010000020012908D10022094C03E0A55C6840AA
:10102000521CD2B29A42F9D3002908D1044A503254
:1010300003E0545C6040491CC9B29942F9D330BD09
:10104000440200207047000010B501F065FF2A48F7
:101050002C4C2D4990ED002AD0ED011AD0ED020A5A
:10106000264871EE822A72EE611A90ED000A244839
:10107000B0EE623AB0EE612A90ED001A234A244B9A
:1010800030EE011A234840EEC12A00EEC12A00EEDC
:10109000813A40EE811AC4ED042A81ED042A82EDE2
:1010A000043AC3ED041A90ED071AB0EE620AF1EEAD
:1010B000410A04F080F884ED040A90ED071A91EDDE
:1010C000040AF1EE410A04F076F881ED040A90ED8D
:1010D000071A92ED040AF1EE410A04F06CF882ED71
:1010E000040A90ED071A93ED040AF1EE410A04F0A8
:1010F00062F883ED040A10BD005600207001002044
:101100006C0100200C560020285600204456002078
:10111000605600208C0100201CB50121102001F038
:10112000A1FB1020009000208DF8040003208DF812
:10113000050001208DF807006946024800F08CF98F
:101140001CBD000000100240F0B5012189B0084626
:1011500001F094FB0121032001F084FB03258DF8AD
:10116000055002264FF400408DF8046001242B4FF7
:1011700000908DF806408DF807406946384600F02B
:101180006BF98DF805508DF804608DF806408DF8E8
:1011900007400820224C00906946204600F05CF988
:1011A00001220F21384600F093F901220321204645
:1011B00000F08EF902A802F0D3FB00244FF6FF7076
:1011C000ADF8084003907507ADF81040ADF80A403F
:1011D00002A9284602F086FB00231A46032128466E
:1011E00002F099F905A802F019FAADF81C4005A91A
:1011F000284602F0BDF90121284602F071F90122CA
:101200001146284602F012FA0021284602F040FB5F
:101210000121284602F06AF909B0F0BD0000024041
:101220000004024030B589B00121022001F026FB04
:101230000121084601F016FBC020039003208DF821
:10124000110002208DF8100001208DF81200224CB0
:101250008DF8130003A9204600F0FEF802220621B3
:10126000204600F035F902220721204600F030F92F
:10127000684602F075FB00244FF6FF70174DADF87D
:1012800000400190ADF80840ADF80240694628469C
:1012900002F028FB00231A460321284602F03BF9FE
:1012A00005A802F0BBF9ADF81C4005A9284602F0DC
:1012B0005FF90121284602F013F901221146284660
:1012C00002F0B4F90021284602F0E2FA0121284692
:1012D00002F00CF909B030BD0000024000040040EB
:1012E00030B589B00121042001F0C8FA01210220A3
:1012F00001F0B8FAC020039003208DF811000220FD
:101300008DF8100001208DF81200224C8DF813008A
:1013100003A9204600F0A0F802220621204600F092
:10132000D7F802220721204600F0D2F8684602F0E2
:1013300017FB00244FF6FF70174DADF800400190E9
:10134000ADF80840ADF802406946284602F0CAFAF6
:1013500000231A460321284602F0DDF805A802F012
:101360005DF9ADF81C4005A9284602F001F90121FC
:10137000284602F0B5F801221146284602F056F937
:101380000021284602F084FA0121284602F0AEF836
:1013900009B030BD000402400008004030B589B0FB
:1013A0000121082001F06AFA0121084601F05AFAE9
:1013B000032003908DF8110002208DF81000012009
:1013C0008DF81200224C8DF8130003A9204600F07E
:1013D00043F802220021204600F07AF8022201217F
:1013E000204600F075F8684602F0BAFA00244FF67D
:1013F000FF70184DADF800400190ADF80840ADF811
:1014000002406946284602F06DFA00231A4603217D
:10141000284602F080F805A802F000F9ADF81C405B
:1014200005A9284602F0A4F80121284602F058F840
:1014300001221146284602F0F9F80021284602F060
:1014400027FA0121284602F051F809B030BD00000A
:1014500000000240000C0040F0B5002201274FF0D0
:10146000030C0B6807FA02F52B40AB422CD106683F
:1014700053000CFA03F4A64306600E79D0F800E09E
:101480009E4046EA0E0606600E79012E01D0022E1D
:1014900012D18668A64386604E79D0F808E09E4057
:1014A00046EA0E0686604668AE43466045688E7919
:1014B0009640B6B235434560C568A543C560CC7952
:1014C0009C40C3681C43C460521C102AC9D3F0BDA1
:1014D0004B07DB0E9A40C90810B500EB8100016A8A
:1014E0000F249C40A1430162016A1143016210BDB7
:1014F000418370470183704710B50A4C01460723AA
:1015000001222046FFF798F92046FFF7CFF9022184
:101510002046FFF764F90028F9D02046BDE81040C6
:10152000FFF75AB90020014036489FED371ADFED2A
:10153000371A027837489FED362A374990ED000A6E
:101540003648092AF1EE400A2ED2DFE802F02D05D6
:10155000080B1013181B2A0081ED000A0CE081ED26
:10156000000A01E081ED001AC0ED001A0EE0C1EDA5
:10157000000AF9E7C1ED000A80ED001A06E0C1EDAE
:10158000000A01E081ED001A80ED002A244ADFED17
:10159000250A1278012A0AD0234A1278012A0BD090
:1015A00012E081ED000AEFE781ED001AE4E780EE3A
:1015B000201A9FED1E0A03E080EE201A9FED1C0A00
:1015C00021EE000A80ED000AD1ED000AF5EEC00A16
:1015D000F1EE10FA05D290ED000AB1EE400A80ED6E
:1015E000000A9FED141A80EE810A81ED000A12496B
:1015F000D1ED001AC1EE810AC1ED000A90ED001A8A
:10160000FFF722BD5101002000000000DB0F49BFA1
:10161000DB0F493F400100205801002060010020FD
:10162000740100200000FA4375010020DB0FC93F60
:10163000DB0FC9BF00007A445C01002010B5022016
:101640002DED048B01F086F900EE100A0320B8EEB0
:10165000C09A01F07FF900EE100A0420F8EEC08A6B
:1016600001F078F9404200EE100A0520B8EEC08A79
:1016700001F070F9404200EE100A9FED181A184868
:10168000F8EEC01A69EE010A90ED000A154820EE46
:10169000802AD0ED000A1448C2EE202A28EE812AC2
:1016A00022EE002AC0ED002AC2EE202A28EE012AEE
:1016B0000E4821EE811A22EE002A21EE000A80EE69
:1016C000201AC0ED002A0A48C2EE202AC0ED002AE6
:1016D000084880ED001ABDEC048B10BD0000C84224
:1016E00068010020640100200C56002028560020CC
:1016F00044560020605600202DE9F04100250E469A
:1017000007462C4608E03846FFF7F6FE054405205C
:1017100002F03CFE641CE4B2B442F4D3B5FBF6F034
:1017200080B2BDE8F081000010B50820FFF7E4FEAC
:10173000FEF7F0FE9FED0B1B53EC112BFEF767FE3F
:101740009FED0A1B53EC112BFEF761FE9FED091B69
:1017500053EC112BFEF75BFEFEF7E9FE00EE100ADC
:1017600010BD0000EC51B81E85EB094000000000E0
:1017700000002640000000000000303FFEE70000AF
:1017800070B50D4C0025C4F8A4520C48016821F432
:1017900040310160016841F480310160C4F8A05219
:1017A000012004F5287402F00DFE0120606002F0B3
:1017B00009FE656070BD00000080404200040240E8
:1017C0001CB50121022001F04DF84FF440700124B6
:1017D00000908DF8044000208DF8060003208DF85D
:1017E00005008DF8074069460448FFF735FE0448B8
:1017F000C0F8A442C0F8A0421CBD00000004024092
:101800000080404270B50D4C0026C4F8A4620C481C
:10181000016821F440310160016841F480310160C8
:101820000125C4F8A052284604F5287402F0CAFD28
:101830006560012002F0C6FD666070BD0080404218
:10184000000402402DE9F047814618480025016850
:1018500021F44031016001680160154E2C462F468D
:101860004FF00108C6F8A472012002F0ABFDC6F8E3
:10187000A4826806D6F82012000E11B140F00105CE
:1018800001E020F00105012002F09CFD641CE4B29F
:10189000082CE7D3B9F1000F04D0FFF7B3FF2846B7
:1018A000BDE8F087FFF76CFFF9E700000004024095
:1018B0000080404270B50D46044600F01BF82046FB
:1018C00000F0B0F800F05EF8284600F0ABF800F049
:1018D00059F800F00FF844F0010000F0A3F800F010
:1018E00051F80120FFF7AEFF044600F02BF8204628
:1018F00070BD000070B51148016821F440310160ED
:10190000016841F4803101600D4C0120C4F8A0024F
:10191000D4F8201200290FD0C4F8A40202F052FD1E
:101920000025C4F8A052D4F82002002804D10120D8
:1019300002F048FDC4F8A45270BD0000000402404B
:10194000008040420D4810B5016821F4403101602B
:10195000016841F480310160094C0020C4F8A40200
:10196000C4F8A002012004F5287402F02BFD012028
:1019700060602060BDE8104002F024BD0004024019
:101980000080404270B512480024016821F44031C3
:101990000160016801600F4D0126C5F8A062304664
:1019A00002F010FDC5F8A46207E0641CE4B2322C1A
:1019B00003D9FFF7C7FF002070BD012002F002FD30
:1019C000D5F820020028F0D1C5F8A402012070BD8E
:1019D00000040240008040422DE9F0411D461446BB
:1019E0000F468046069EFFF765FF621CFF21C4F18B
:1019F000080301FA02F22B445B1ED9400A43C5F1E9
:101A000008018E40D2B2F1B2C4F10703D9401040B0
:101A100040EA01023946404600F034F80120BDE8B2
:101A2000F08100002DE9F04105461448016821F4D9
:101A300040310160016841F480310160104E00279F
:101A4000C6F8A4723C464FF00108E809C6F8A002A7
:101A50006806050E012002F0B5FCC6F8A48201203C
:101A600002F0B0FCC6F8A472012002F0ABFC641CCA
:101A7000E4B2082CE9D3BDE8F08100000004024084
:101A80000080404270B515460E460446FFF732FF0F
:101A90002046FFF7C7FFFFF775FF3046FFF7C2FF8D
:101AA000FFF770FF2846FFF7BDFFFFF76BFFFFF75B
:101AB00049FF012070BD0000174830EEC00A1749E9
:101AC000D0ED0A0A174A91ED001A70EE600A144927
:101AD00060EE810A91ED001A41EE000A90ED091ABC
:101AE00070EE810A10EE901AC0ED090A914203DDF2
:101AF000DFED0D0AC0ED090A10EE901A0B4A914273
:101B000003D9DFED0B0AC0ED090A80ED0A0ABDEE2C
:101B1000E00A10EE100A70478C01002044010020FA
:101B2000480100200040834600408346004083C6B1
:101B3000004083C6174830EEC00A1749D0ED0D0AA1
:101B4000174A91ED001A70EE600A144960EE810A9E
:101B500091ED001A41EE000A90ED0C1A70EE810A28
:101B600010EE901AC0ED0C0A914203DDDFED0D0A74
:101B7000C0ED0C0A10EE901A0B4A914203D9DFED2A
:101B80000B0AC0ED0C0A80ED0D0ABDEEE00A10EE66
:101B9000100A70478C0100204401002048010020F9
:101BA0000040834600408346004083C6004083C611
:101BB000174830EEC00A1749D0ED100A174A91EDC8
:101BC000001A70EE600A144960EE810A91ED001A65
:101BD00041EE000A90ED0F1A70EE810A10EE901A95
:101BE000C0ED0F0A914203DDDFED0D0AC0ED0F0AD3
:101BF00010EE901A0B4A914203D9DFED0B0AC0EDAB
:101C00000F0A80ED100ABDEEE00A10EE100A7047D0
:101C10008C01002044010020480100200040834640
:101C200000408346004083C6004083C6174830EE1C
:101C3000C00A1749D0ED130A174A91ED001A70EE49
:101C4000600A144960EE810A91ED001A41EE000A23
:101C500090ED121A70EE810A10EE901AC0ED120A81
:101C6000914203DDDFED0D0AC0ED120A10EE901A6D
:101C70000B4A914203D9DFED0B0AC0ED120A80ED49
:101C8000130ABDEEE00A10EE100A70478C01002026
:101C90004401002048010020004083460040834664
:101CA000004083C6004083C61CB50121042000F01B
:101CB000D9FD2020009000208DF8040003208DF82D
:101CC000050001208DF8070069460248FFF7C4FBB4
:101CD0001CBD00000008024010B502F075FA012892
:101CE00005D1044902480A6802608988818010BDD4
:101CF00020020020260200201CB50121082000F04F
:101D0000B1FD4FF46040009001208DF804000021E7
:101D10008DF8061003218DF805100B4C8DF8070087
:101D200069462046FFF798FB4FF480412046FFF7B5
:101D3000E1FB4FF400512046FFF7DCFB4FF400417C
:101D40002046FFF7D7FB1CBD000C0240BC2801D386
:101D5000012210E0622801D302220CE02A2801D3DC
:101D6000032208E0142801D3042204E00A2801D346
:101D7000052200E006221A21D020FFF783BE10B50D
:101D800004464FF47A70844201D9044602E0042CE0
:101D900000D20424B0FBF4F0401EC2B21921D020BE
:101DA000FFF770FE6008BDE81040FFF7CFBF10B529
:101DB00080226B21D020FFF765FEC82002F0E6FAF2
:101DC00000226B21D020FFF75DFE012000F03AF8E1
:101DD000002000F02EF83220FFF7D1FF002238213A
:101DE000D020FFF74FFE00226A21D020FFF74AFEE5
:101DF00000222321D020FFF745FE80223721D0206A
:101E0000FFF740FE7521D020FFF754FD682801D070
:101E1000012010BD01226B21D020FFF733FE0022EC
:101E20006C21D020FFF72EFE3220FFF7A8FF002004
:101E300010BD08B50223009004221C21D020FFF71A
:101E4000CBFD08BD08B50223009004221B21D02041
:101E5000FFF7C2FD08BD000008B502F0D7FA0D4C2F
:101E60004FF47A7500900A21684603F0FFFC206861
:101E7000A8420ADA401C2060606820612089A082A4
:101E8000D4F80A00E061E089208400F005F800F051
:101E900047F8E8E71002002070B53C21D020FFF79A
:101EA00009FD04463B21D020FFF704FD04EB002090
:101EB0001A4C3E212080D020FFF7FCFC05463D2136
:101EC000D020FFF7F7FC05EB002060804021D020F8
:101ED000FFF7F0FC05463F21D020FFF7EBFC05EBB8
:101EE000002000B2A4F10A01A0800968B1F57A7F50
:101EF00012DB04F118032188198062885A809880C7
:101F00009B1F1D88491B21805988511A618099881F
:101F1000401A00F58040A08070BD00001A02002029
:101F2000D0B54421D020FFF7C5FC04464321D02082
:101F3000FFF7C0FC04EB0020214C46212080D0207C
:101F4000FFF7B8FC06464521D020FFF7B3FC06EBAF
:101F5000002060804821D020FFF7ACFC06464721D6
:101F6000D020FFF7A7FC06EB002001B2221FA180C2
:101F700010684FF47A77134B134EB84203DA0120FE
:101F8000186030701AE0B84207D1002030704FF46A
:101F90009670186040F2E9301060094B20881233C7
:101FA000188062885A8099809B1F1E88801B208021
:101FB0005888101A60809888081AA0802846D0BDDA
:101FC00014020020340000203C010020FEE7000045
:101FD0002DE9FC4701210F2000F044FC01248DF87D
:101FE0000440002530208DF80650DFF898A00090BE
:101FF0008DF805508DF8074069465046FFF72CFADA
:102000008DF806508DF80440DFF87C804FF4E047EF
:102010008DF8055000978DF8074069464046FFF758
:102020001BFA8DF804408DF80650DFF860908DF8AB
:10203000055000948DF8074069464846FFF70CFAB2
:102040008DF804408DF806508DF805508DF8074046
:102050000F4C4FF4A056009669462046FFF7FCF956
:1020600030215046FFF744FA39464046FFF740FA20
:1020700001214846FFF73CFA31462046FFF738FA7F
:10208000BDE8FC8700000240000402400008024056
:10209000000C02402DE9F041884607468AB0012134
:1020A000022000F0F7FB0121042000F0DBFB394E99
:1020B000032206213046FFF70BFA032207213046A0
:1020C000FFF706FA032208213046FFF701FA032240
:1020D00009213046FFF7FCF94FF47070059002209B
:1020E0008DF8180003208DF8190000248DF81A408F
:1020F00001258DF81B5005A93046FFF7ADF9264E96
:10210000ADF81C800897ADF82450ADF81E4007A923
:10211000304601F0E7FB6020ADF80000ADF802505A
:10212000ADF80C406946304601F088FA6946304601
:1021300001F0C0FA6946304601F010FB69463046AE
:1021400001F05AFB0121304601F0DAF9082130464E
:1021500001F0AAFA0821304601F0F6FA08213046CB
:1021600001F044FB0821304601F080FB012130469C
:1021700001F0ACF9084834300460001D0460001D13
:102180000460001D04600121304601F0AFF90AB07F
:10219000BDE8F081000802400004014030EE202A32
:1021A0009FED1F3A1F4832EE012A72EE212AB5EE4A
:1021B000002A62EE822A62EE832AFDEEE22A12EE05
:1021C000901A70EE602A4187B1EE400A72EE812AC1
:1021D00030EE600A72EEE12A30EE010A62EE822AE7
:1021E00030EE210A62EE832A20EE020AFDEEE22A98
:1021F00012EE901A81870C49D1ED000A0B4991ED3E
:10220000001A70EE810A80EE201A9FED090A21EE75
:10221000000ABDEEC00A10EE101AC1877047000018
:1022200000007AC444020020700100206C010020EC
:1022300000007A447047000030B50F23C27801785F
:102240000125FAB1144A126801F1E02102F4E062BA
:10225000C2F5E062C2F30722C2F10404D34042781F
:10226000A24084781C401443220181F800240078A5
:1022700000F01F018D404009800000F1E020C0F80F
:10228000005130BD01F01F0085404809800000F179
:10229000E020C0F8805130BD0CED00E00249084359
:1022A00002490860704700000000FA050CED00E0EC
:1022B0000020044A01461154401CC0B20928FAD338
:1022C00070470000380200202DE9F8430125074639
:1022D000ADF80050204800264670ADF800501F4C65
:1022E00080464FF6FF792DE0BDF80000384202D05D
:1022F000C4F8845201E0C4F88462102002F062F84D
:10230000C4F88C520A2002F05DF8C4F88C620A20EE
:1023100002F058F8C4F88C52102002F053F8D4F8A8
:10232000000230B198F80110BDF80020114388F880
:102330000110102002F046F8BDF8001009EA410033
:10234000ADF80000BDF80000FF28CDD9BDE8F84386
:10235000102002F037B8000038020020000042428E
:1023600070B5FFF7A5FF00F009F90B480B4AB0F86C
:1023700003400A48083244800020012512F810303A
:1023800000F101005B1E05FA03F12142C0B202D048
:102390001028F3D3002070BD380200203C0000203C
:1023A00010B5154C0020C4F88802102004F52274E2
:1023B00002F008F80120FFF787FF4320FFF784FFB2
:1023C0000020FFF781FF0120FFF77EFF0020FFF7CD
:1023D0007BFF0020FFF778FF0020FFF775FF00204C
:1023E000FFF772FF0020FFF76FFF01202060BDE8BC
:1023F0001040102001F0E6BF0000424210B5154C1D
:102400000020C4F88802102004F5227401F0DAFFDD
:102410000120FFF759FF4320FFF756FF0020FFF789
:1024200053FF0020FFF750FF5A20FFF74DFF5A20BF
:10243000FFF74AFF5A20FFF747FF5A20FFF744FFF4
:102440005A20FFF741FF01202060BDE81040102016
:1024500001F0B8BF000042427CB50121102000F01D
:1024600001FA012400250D4E8DF8045000948DF8DA
:10247000074069463046FEF7EFFF0E2000908DF8CA
:1024800004408DF8065002208DF805008DF80740B5
:1024900069463046FEF7E0FF7CBD000000100240B8
:1024A00010B5FFF75DFF00EE100A26482B4BB8EE83
:1024B000400A012280ED000A2348C17900EE901AFB
:1024C0002249F8EE600AC1ED000A017A00EE901A86
:1024D0001F49F8EE600AC1ED000A417901EE101AB9
:1024E0001C49B8EE411A81ED001A807910EE101ADD
:1024F00001EE100A1848B1F1814FB8EE411A80ED93
:10250000001A174801D10178D1B15968002916D0B5
:1025100010EE901A134B994211DA017800290ED16E
:1025200011490968B1F57A7F09DB10490270002072
:1025300008700F4908700F4908700F49087010BDE6
:102540005A60E5E788010020380200207801002069
:102550007C01002080010020840100203C0000203C
:102560004C0100200000EC42100200204E0100202F
:102570004D0100204F010020500100202DE9FC41B9
:1025800000268DF800600125ADF80450224CC4F8F7
:102590008862224F3878FFF797FE7878FFF794FE2D
:1025A00002208DF800001E4F4FF6FF782CE0ADF8AA
:1025B00004501DE0C4F88C520A2001F003FFC4F857
:1025C0008C620A2001F0FEFEC4F88C52D4F800029E
:1025D00040B19DF80000BDF80410385C08439DF838
:1025E00000107854BDF8041008EA4100ADF804006A
:1025F000BDF80400FF28DDD9102001F0E3FE9DF8AE
:102600000000401C8DF800009DF800000928CED382
:10261000C4F88852BDE8FC81000042423C00002022
:102620003802002010B500F00DF800F00BF800F0B3
:1026300009F8FFF7B5FE00F027F8BDE81040FFF7F6
:10264000DDBE000010B50F4C0020C4F88802102039
:1026500004F5227401F0B6FE0120FFF735FE42209A
:10266000FFF732FE0020FFF72FFE0020FFF72CFEC1
:102670000020FFF729FE01202060BDE81040102057
:1026800001F0A0BE0000424210B5144C0020C4F876
:102690008802012004F52274FFF716FE4420FFF79C
:1026A00013FE0020FFF710FE0120FFF70DFE0320B0
:1026B000FFF70AFE0020FFF707FE0020FFF704FEE9
:1026C0000020FFF701FE0020FFF7FEFD0120206043
:1026D000BDE81040102001F075BE0000000042422D
:1026E000F0B44F48D0ED000A9FED4E0A4E486FF00F
:1026F000130370EE600AFDEEE00A10EE902AD0EDB2
:10270000000A4A4870EE600AFDEEE00A10EE901AE8
:10271000D0ED000A994230EE600ABDEEC00A10EE1C
:10272000100A02DD142900DA00219A4202DD142A7F
:1027300000DA0022984202DD142800DA00209FED22
:102740003C0A3C4E29B9D6ED000A80EE801A86ED8F
:10275000001A394D28B9D5ED000A80EE801A85EDB2
:10276000001A364B374C364F1B6894ED000AF1EED9
:10277000040ABB4202D130EE200A04E0324FBB42D1
:1027800003D130EE600A84ED000ADFED300AB5EEC9
:10279000C00AF1EE10FA01D2C4ED000A00EE101AE0
:1027A000DFED2C1A2A49B8EEC01A00EE102A9FED70
:1027B0002A3AF8EEC02A00EE100AB8EEC02A94EDCC
:1027C000000A21EE001A62EE802A21EE211A62EE42
:1027D000A12A86ED001AC1ED002AC0EE032A9FED62
:1027E0001F0AB5EEC01A22EE000A22EE800A20EE81
:1027F000210AF1EE10FA85ED000A03D2B1EE400A8B
:1028000085ED000ADFED161AC1ED000A81EE210AFE
:1028100086ED000A95ED001AF0BCFEF715BC00002D
:1028200078010020000000437C010020800100208E
:102830009A99993F580100206001002088010020EA
:102840000000304140010020000010410000000065
:102850005C0100200000003C0000FA43DB0F493F10
:1028600000007A44044A0029116801D0014300E0C5
:10287000814311607047000030380240044A00294B
:10288000116801D0014300E08143116070470000EE
:1028900040380240044A0029116801D0014300E099
:1028A000814311607047000044380240044A002907
:1028B000116801D0014300E08143116070470000BE
:1028C0002438024070B5204B1968204C11F00C01DF
:1028D00004D06610042903D0082903D004601BE04B
:1028E000066019E0184A121F1168C1F3805511687B
:1028F00001F03F0115B1B6FBF1F101E0B4FBF1F1DC
:1029000014681268C4F388146143C2F30142521C74
:102910005200B1FBF2F1016019680F2202EA1111B5
:102920000B4A545C0168E14041601C68072505EAD8
:102930009424145D21FA04F484601B6805EA53337F
:10294000D25CD140C16070BD083802400024F40060
:10295000B80000200021022807D003280BD004284B
:102960000BD005280BD0002070474FF08042506AF2
:10297000516200B27047044A02E0044A00E0044A8F
:102980001068116000B27047240400402408004021
:10299000240C00402DE9F0415A4C4FF4FA674FF4F3
:1029A0007A783A464146206802F015FC564E20607F
:1029B0003A464146306802F00EFC544D30603A46CB
:1029C0004146286802F007FC3A46514F28604146CC
:1029D000386802F000FC3860306821682A686FF0BF
:1029E0006304A0F2DC50A1F2DC51A2F2DC52A0425E
:1029F00002DD642800DA0020A34202DD642B00DA45
:102A00000023A14202DD642900DA00219FED410A82
:102A1000414C28B9D4ED140A80EE801A84ED141AC2
:102A20002BB9D4ED150A80EE801A84ED151A29B958
:102A3000D4ED160A80EE801A84ED161A00EE102AE4
:102A4000364DB8EEC00AD5ED000A30EE800ABDEE74
:102A5000C00A10EE102A002A00DA002200EE100A46
:102A600001EE902A5842F8EEC00AF8EEE11A00EEA4
:102A7000100A49422A4D20EEA12ADFED2C0AB8EEB9
:102A8000C01A00EE101AC2EE201A02EE102AB8EE9A
:102A9000C00A2549B8EEC22A224821EE022A82EE57
:102AA000201A9FED232A20EE022A82EE200A9FEDB3
:102AB000212AC1EE820A81ED000AC1EE021AC5ED9B
:102AC000000AF5EEC00AF1EE10FAC0ED001A03D2CA
:102AD000B1EE400A81ED000ADFED170AC0ED000AF1
:102AE000207838B1B0EE600A85ED000A81ED000A69
:102AF000401E2070B0EE401A95ED000ABDE8F0418E
:102B0000FEF7A2BA780000207C00002080000020A0
:102B1000840000209A99993F8C01002040010020F8
:102B2000580100205C010020600100200000FA43F1
:102B3000DB0F493F00007A44000000000E4A82EC9F
:102B4000020AC2E902018900414301EE901A0B48D2
:102B500082ED041AF8EEE11AC0ED001ADFED081A52
:102B6000084821EE211A80ED001A074880ED000A7E
:102B70000648C0ED000A70477C5600206401002022
:102B8000DB0F4940680100206C010020700100202B
:102B900010B56B4C4FF4A5700A2120600C20FEF795
:102BA000ABFD2168674B90FBF1F010F0FF0018704F
:102BB000DFED652A9FED653A9FED652A4FF4FA74C3
:102BC00009D1B0EE421A21461B20F0EE620AB0EEA7
:102BD000430AFFF7B3FF1878012809D1B0EE421A73
:102BE00021463320F0EE620AB0EE430AFFF7A6FF5B
:102BF0001878DFED582A9FED583A022809D1B0EE37
:102C0000421A21461B20F0EE620AB0EE430AFFF79B
:102C100095FF1878032809D1B0EE421A21463320D7
:102C2000F0EE620AB0EE430AFFF788FF18789FEDD6
:102C30004B2ADFED4B2A9FED4B3A042809D1B0EE29
:102C4000431A21461220F0EE420AB0EE620AFFF764
:102C500075FF1878052809D1B0EE431A21462F20B8
:102C6000F0EE420AB0EE620AFFF768FF1878DFED77
:102C70003E3A9FED3E4A062809D1B5EE001A21469C
:102C80001220F0EE630AB0EE440AFFF757FF1878FF
:102C9000072809D1B5EE001A21462F20F0EE630A6D
:102CA000B0EE440AFFF74AFF1878DFED313A9FEDA6
:102CB000314A082809D1B0EE431A21461220F0EE1D
:102CC000630AB0EE440AFFF739FF1878092809D1E2
:102CD000B0EE431A21462F20F0EE630AB0EE440A0C
:102CE000FFF72CFF1878DFED243A9FED244A0A28DD
:102CF00009D1B5EE001A21461220F0EE630AB0EEBB
:102D0000440AFFF71BFF18780B2809D1B5EE001A0B
:102D100021462F20F0EE630AB0EE440AFFF70EFFC3
:102D200018780C280BD12146BDE81040B0EE431AAC
:102D30002F20F0EE420AB0EE620AFFF7FFBE10BD90
:102D4000540100203D0100209A99193E5839343E23
:102D5000E3A51B3ECDCC4C3E1F856B3E2DB29D3E68
:102D6000643B9F3E6666663EF2D24D3E3D0A973E0C
:102D70000C022B3E986E923E295C0F3E8FC2753E30
:102D80000CB50022274900920192086840F4803077
:102D900008604FF4A043086800F4003001900098E8
:102DA000401C0090019810B900989842F3D108682F
:102DB000800334D5012001901A484030026842F067
:102DC000805202601848026842F44042026015488E
:102DD000083002680260026842F400420260026841
:102DE00042F4A0520260031F104A1A600A6842F0BF
:102DF00080720A600A689201FCD50D4940F20572A2
:102E00000A60016821F003010160016841F00201DC
:102E100001600168C1F381010229FAD10CBD019260
:102E20000CBD00000038024000700040085440070C
:102E3000003C02402DE9F05F314E002401251F4681
:102E400091468846002804DDC6F8B442C6F8B05260
:102E500003E0C6F8B452C6F8B042DFF8A8A0DAF82A
:102E60000810484301F00CFBDFF89CB001465846BF
:102E700000F00CFD2549B8F1000F04DDC1F88042D7
:102E8000C6F8B85203E0C1F88052C6F8B842DAF882
:102E90000C10564608FB01F001F0F2FA0146D84644
:102EA000584600F0F1FC1A48B9F1000F04DDC0F8F3
:102EB000B042C0F8A85203E0C0F8B052C0F8A8422F
:102EC000316909FB01F001F0DBFA0146404600F0F0
:102ED000D9FC1048002F04DDC0F89042C0F894528D
:102EE00003E0C0F89052C0F89442716907FB01F00A
:102EF00001F0C6FA01464046BDE8F05F00F0C0BCF4
:102F0000008040428C01002000040140000041424A
:102F100000804142000040423148DFED301A90ED20
:102F2000002AB4EEC02AF1EE10FA02D232EE212AC3
:102F300002E004DD32EE612A80ED002A01E080ED3E
:102F4000000A90ED012AB4EEE02AF1EE10FA02D266
:102F500032EE212A02E004DD32EE612A80ED012A00
:102F600001E0C0ED010A90ED022AB4EEC12AF1EEB3
:102F700010FA02D272EE211A02E004DD72EE611A3A
:102F8000C0ED021A01E080ED021ADFED181AB5EE6D
:102F9000C00A144AF1EE10FA134B06D101689142AF
:102FA00003DA994201D2C0ED001AF5EEC00AF1EE43
:102FB00010FA06D14168914203DA994201D2C0ED7C
:102FC000011AB5EEC01AF1EE10FA06D181689142ED
:102FD00003DA994201D2C0ED021A70470AD7A33C26
:102FE00000560020CDCC4C3DCDCC4CBD00000000A7
:102FF0004FF0E0210428086903D020F004000861A4
:10300000704740F00400FAE710B503F0D5F9012845
:1030100003D0BDE8104002F0C3BE10BD124810B589
:10302000016841F4700101601048016841F001013C
:1030300001600E4A00210832116002680C4B1A40F0
:103040000260031D0B4A1A60026822F480220260AB
:1030500006480C300160FFF793FE03494FF0006013
:103060008039086010BD000088ED00E000380240A3
:10307000FFFFF6FE1030002470B5048C24F001042C
:103080000484058B048C4FF6FF7606EA0313134382
:1030900025F0F3052B4324F00A020A4342F0010114
:1030A0000383018470BDF0B5048C24F01004048403
:1030B000078B068C4FF6FF7404EA011527F473475B
:1030C00004EA0331394304EA02220A4326F0A0014C
:1030D000294341F0100102830184F0BD2DE9F0473E
:1030E0008D4800248169B1F5C86F11DD8B490A78DC
:1030F00072B98B4A1268B2F57A7F09DB01220A7035
:1031000088490C7088490C7088490C7088490C708B
:1031100080460078874D000642F20F764FF4FA772A
:103120002DD40221284600F017FA40B30221284688
:1031300000F0D9F998F80000400628463DD500F087
:1031400003FA80B2A8F80600B8F804104246884294
:1031500001D2566300E05463401A516B0844506139
:10316000516A401A00D54042B84200DD51615069B1
:10317000506288F800400021284600F08FFA98F845
:10318000010000063AD40421284600F0E5F9A8B36E
:103190000421284600F0A7F998F8010040062846C7
:1031A0004AD500F0D3F980B2A8F80A00B8F80810A0
:1031B000424688420ED296630DE000F0C5F9014602
:1031C000A8F8041098F8001041F0400188F80010A9
:1031D0000221D1E79463401A916B08449061916A8F
:1031E000401A00D54042B84200DD9161906990627A
:1031F00088F801400021284600F09CFA98F8020067
:1032000000063AD40821284600F0A6F9A8B3082100
:10321000284600F068F998F80200400628464BD589
:1032200000F096F980B2A8F80E00B8F80C104246EB
:1032300088420ED2D6630DE000F088F90146A8F866
:10324000081098F8011041F0400188F8011002219F
:10325000D1E7D463401AD16B0844D061D16A401AD7
:1032600000D54042B84200DDD161D069D06288F813
:1032700002400021284600F0AFFA98F80300C1464A
:10328000000647D41021284600F066F9002841D0F6
:103290001021A846284600F026F999F803004D466B
:1032A00040062BD5404600F055F980B26882298A45
:1032B00088420ED22E640DE000F04AF90146A8F8CB
:1032C0000C1098F8021041F0400188F80210022119
:1032D000D0E72C64401A296C08442862296B401AF4
:1032E00000D54042B84200DD2962286A2863EC70AC
:1032F00000214046BDE8F04700F0AEBA44464046E3
:1033000000F028F92882E878022140F04000E870B7
:103310002046EFE7BDE8F087640000204E01002062
:10332000100200204D0100204C0100204F01002020
:103330005001002000000140F0B50D460646012175
:1033400089B00846FFF7A6FA01211020FFF78AFA94
:103350004FF4D440022203908DF8102003208DF802
:1033600011000024404F8DF812408DF8132003A95E
:103370003846FEF771F8012209213846FEF7A8F811
:1033800001220B213846FEF7A3F801220D21384611
:10339000FEF79EF801220E213846FEF799F80696B0
:1033A000324EADF81450ADF81C40ADF8164005A9EA
:1033B000304600F097FA01250F20ADF80040ADF837
:1033C0000450ADF80800ADF80240ADF8064069467B
:1033D000304600F0CDF80420ADF80000ADF8045000
:1033E000ADF80240ADF80640ADF8084069463046F9
:1033F00000F0BEF80820ADF80000ADF80450ADF8BC
:103400000240ADF80640ADF808406946304600F08D
:10341000AFF80C20ADF80000ADF80450ADF8024054
:10342000ADF80640ADF808406946304600F0A0F817
:103430001B208DF820008DF821408DF822408DF85A
:10344000235008A8FEF7F8FE01221E21304600F0A6
:10345000EDF80121304600F053F80121304600F02C
:1034600045F809B0F0BD0000001002400000014026
:103470000248018A21F001010182704700000140E9
:103480004FF08040018A018A21F0010101827047DA
:1034900003480188018821F0010101807047000084
:1034A0001004004003480188018821F001010180D7
:1034B000704700001008004003480188018821F08F
:1034C0000101018070470000100C004000290188B4
:1034D00002D041F0800101E021F0800101807047BD
:1034E000C94301827047C94301827047002901889E
:1034F00002D041F0010101E021F00101018070479B
:10350000002930F8441F02D041F4004101E0C1F32A
:103510000E010180704770B50589048B068C25F07B
:1035200007050D434FF6FC410C4040F201110C43DE
:103530004FF6FF7101EA031126F0220611433143D1
:1035400005810483018470BD406B7047806B7047B8
:10355000C06B7047006C704702460020138A928946
:103560000B4202EA010202D0002A00D0012070477B
:103570002DE9F0410C460E884988A288238905462A
:1035800016B3042E28D0082E2E8C4FF6FF702BD0A9
:1035900026F480562E84AF8B2E8C00EA022200EA9D
:1035A000013127F473473A4300EA0330104326F40D
:1035B00020420A4342F48051A8832984E1882846A6
:1035C000BDE8F04100F082B9FFF756FDE1882846DA
:1035D000BDE8F04100F05EB9FFF765FDE1882846DF
:1035E000BDE8F04100F05EB926F480762E84AF8B02
:1035F0002E8C00EA012100EA0310104327F0F307A4
:10360000384326F420620A4342F48071A883298457
:10361000E1882846BDE8F04100F050B90021018062
:10362000418001228280C18001817047002A828905
:1036300001D00A4300E08A438281704730B5028C92
:1036400022F001020284028C8388048B22F00202A1
:1036500024F073050C882C438D8915434A882A432E
:103660000C4DA84202D00C4DA8420DD122F0080505
:10367000CA8923F440732A4322F004058A882A4326
:103680000D8A1D434B8A2B438380048389684163E1
:10369000028430BD0000014000040140028C22F091
:1036A00002020A4302847047028B22F008020A4396
:1036B0000283704770B5028C22F010020284028CE3
:1036C0008388048B0D8824F4E6464FF6FF7404EAE1
:1036D000052535438E8922F0200204EA061616439A
:1036E0004A8804EA02123243104EB04202D0104E11
:1036F000B04215D122F08006CA8923F4406304EA5F
:103700000212324322F040068A8804EA021232434F
:103710000E8A04EA86061E434B8A04EA8303334377
:103720008380058389688163028470BD0000014045
:1037300000040140028C4FF6FF7322F0200203EADE
:103740000111114301847047028B4FF6FF7322F47D
:10375000006203EA012111430183704770B5028CB6
:1037600022F480720284028C8388848B0D8824F07A
:10377000730425438E894FF6FF7422F4007204EA25
:10378000062616434A8804EA02223243104EB0420B
:1037900002D0104EB04215D122F40066CA8923F43B
:1037A000405304EA0222324322F480668A8804EA03
:1037B000022232430E8A04EA06161E434B8A04EAAA
:1037C00003133343838085838968C163028470BD9A
:1037D0000000014000040140028C4FF6FF7322F408
:1037E000007203EA0121114301847047828B22F0A9
:1037F00008020A438283704770B5028C22F480521B
:103800000284058C8288838B0C8823F4E6464FF66D
:10381000FF7303EA0424344325F400568D8903EA38
:10382000053535434E8803EA06362E43084DA84237
:1038300002D0084DA84205D122F480450A8A03EA45
:1038400082122A438280848389680164068470BD61
:103850000000014000040140028C4FF6FF7322F487
:10386000005203EA0131114301847047828B4FF605
:10387000FF7322F4006203EA012111438183704740
:103880004163704781637047C1637047016470474B
:1038900041627047028B22F00C020283028B0A43C2
:1038A00002837047028B22F440620283028B4FF640
:1038B000FF7303EA01210A4302837047828B22F0DF
:1038C0000C028283828B0A4382837047828B22F4AC
:1038D00040628283828B4FF6FF7303EA01210A4321
:1038E0008283704730B50288164C174DA0420DD028
:1038F000A8420BD0B0F1804F08D0144B984205D0AD
:10390000134B984202D0134B984203D122F070031C
:103910004A881A43104B984206D0104B984203D065
:1039200022F440730A891A4302804A68C2620A88F4
:103930000285A04201D0A84201D1897A01860121E5
:10394000818230BD000001400004014000040040BD
:1039500000080040000C004000100040001400402F
:103960004FF0FF314160002101800181418081726F
:1039700070470000142809DB1448D0F8100228B161
:1039800013480078012801D000207047114A012017
:1039900000211160121F1160121F1160121F1160AF
:1039A0000D4AC2F8B412C2F8B0120C4BC3F8801220
:1039B000C2F8B8120A4AC2F8A812C2F8B012094AEC
:1039C000C2F89412C2F89012704700000000424200
:1039D0003C01002040040140008040420000414280
:1039E000008041420000404210B52F4C40F225516A
:1039F000204600F00FFA002853D0204600F098FA35
:103A0000C2B22A480068B0F57A7F4ADB294B284CBD
:103A1000002158787B2A225400D028B1401CC0B223
:103A200058700B2802D03CE059703AE05970A07AE7
:103A30007D28F9D1204A60781170204A1170204AFF
:103A40001170204A1170204A1170204A117030B153
:103A500001281AD002281CD0032822D11BE021798A
:103A6000E07800F06BFA1A4880ED000AA1796079DD
:103A700000F064FA174880ED000A217AE07900F03E
:103A80005DFA154880ED000A0BE01449A078086043
:103A900007E0134804E0A2781248012A00D101216E
:103AA0000160002010BD0000004C0040A401002077
:103AB00094020020A80000204C0100204E010020AC
:103AC0004D0100204F01002050010020E80100209E
:103AD000580100205C01002060010020000200204D
:103AE000040200200802002070B5284C40F2255145
:103AF000204600F08FF9E8B3204600F019FAC1B271
:103B000023480068B0F57A7F3EDB234A214C00252C
:103B100010787B29215400D028B1401CC0B210700D
:103B20000B2802D030E015702EE01570A07A7D28A9
:103B30002AD100210920FDF769FA617A884223D150
:103B400016481A490570164805701648057016483B
:103B5000057001200870164805702179E07800F0A2
:103B6000EDF9144880ED000AA179607900F0E6F9DA
:103B7000114800E008E080ED000A217AE07900F0C9
:103B8000DDF90E4880ED000A002070BD00100140F4
:103B9000A401002094020020A80000204C01002075
:103BA0004E0100204D0100204F0100205001002057
:103BB000E8010020580100205C0100206001002085
:103BC00000B5054B0022985C01F06AFC521CD2B291
:103BD000182AF8D300BD00004402002010B52B4C79
:103BE00040F22551204600F015F9E8B3204600F0D8
:103BF0009FF9C2B226480068B0F57A7F43DB264BB6
:103C0000244C0020D9787B2A625400D029B1491C69
:103C1000C9B2D9700B2902D035E0D87033E0D87022
:103C2000A17A7D29F9D11D4A617810701C4A107063
:103C30001C4A10701C4A10701C4A10701C4A1070EC
:103C400011B101291FD11BE02179E07800F076F94C
:103C50001848B1EE400A80ED000AA179607900F0C1
:103C60006DF9B1EE400A00E00DE0134880ED000A66
:103C7000217AE07900F062F9104880ED000A02E054
:103C80000F49A0780860002010BD000000440040EB
:103C9000A401002094020020A80000204C01002074
:103CA0004E0100204D0100204F0100205001002056
:103CB000E8010020580100205C0100206001002084
:103CC0000002002000B5054B0022985C01F0F0FBDB
:103CD000521CD2B2182AF8D300BD000044020020C2
:103CE00010B52B4C40F22551204600F093F8E8B374
:103CF000204600F01DF9C2B226480068B0F57A7F70
:103D000043DB264B244C002099787B2A625400D058
:103D100029B1491CC9B299700B2902D035E09870BD
:103D200033E09870A17A7D29F9D11D4A617810702D
:103D30001C4A10701C4A10701C4A10701C4A1070EB
:103D40001C4A107011B101291FD11BE02179E078C4
:103D500000F0F4F81848B1EE400A80ED000AA179AD
:103D6000607900F0EBF8B1EE400A00E00DE0134896
:103D700080ED000A217AE07900F0E0F8104880ED4B
:103D8000000A02E00F49A0780860002010BD000082
:103D900000480040A401002094020020A800002058
:103DA0004C0100204E0100204D0100204F01002059
:103DB00050010020E8010020580100205C01002093
:103DC000600100200002002000B5054B0022985C35
:103DD00001F078FB521CD2B2182AF8D300BD0000C3
:103DE0004402002000B5054B0022985C01F074FBF2
:103DF000521CD2B2182AF8D300BD000044020020A1
:103E00000029818902D041F4005101E021F40051E0
:103E10008181704770B501F01F0501260024C1F3B0
:103E2000421306FA05F2012B0FD0022B0FD0838A22
:103E30004FEA11210088134206FA01F600EA060053
:103E400001D000B10124204670BD8389F0E7038AC8
:103E5000EEE710B5C1F3421301F01F040121A140A8
:103E6000012B07D0022B07D01430002A026805D09E
:103E70000A4304E00C30F8E71030F6E78A430260AA
:103E800010BD00007FB50446008A0D46C98820F4A5
:103E9000405001432182A08941F20C618843A988E6
:103EA0002A8911436A8902431143A181A08A20F41F
:103EB0004071A8890843A0826846FEF703FD1A48AE
:103EC000844202D01948844201D1039800E002984C
:103ED000A189090400EBC00101EB0010296801D59C
:103EE000490000E08900B0FBF1F06422B0FBF2F180
:103EF00009010B096FF018056B4300EB8300A389E0
:103F00001D044FF0320306D503EBC000B0FBF2F006
:103F100000F0070005E003EB0010B0FBF2F000F04A
:103F20000F00084320817FBD0010014000140140B4
:103F30008088C0F308007047FEE7000070B501EB11
:103F4000002004B24FF47A7594FBF5F005FB1040A5
:103F50002DED028BFCF7CDFA9FED0B1B53EC112BD3
:103F6000FCF755FA41EC180B94FBF5F0FCF7C1FA9D
:103F700053EC182BFCF7A4F9FCF7D9FABDEC028B33
:103F800000EE100A70BD0000FCA9F1D24D62503F56
:103F90000FB4054B10B503A9044A029800F018F8B5
:103FA00010BC5DF814FB0000F9430008B4000020C9
:103FB00002E008C8121F08C1002AFAD170477047F2
:103FC000002001E001C1121F002AFBD17047000050
:103FD0002DE9FF4F8BB09A460F460546002606E0B6
:103FE00025280BD052460D9990476D1C761C2878D9
:103FF0000028F5D10FB03046BDE8F08F0024A04670
:104000000122604900E0044315F8013F203B02FA19
:1040100003F00842F7D128782E2817D115F8010FA0
:1040200044F004042A280ED06FF02F022878A0F163
:10403000300109290AD808EB880102EB410100EBA5
:1040400001086D1CF2E757F8048B6D1C287869286D
:104050003ED006DC0028CDD063280BD0642804D1E4
:1040600036E0732810D075284BD052460D999047F2
:10407000761C85E017F8040B8DF8000000208DF801
:104080000100E946012003E057F8049B4FF0FF30A0
:1040900061074FF0000401D40AE0641C44450DDAC6
:1040A0008442FADB19F804100029F6D106E0641CFA
:1040B0008442FCDB19F804100029F8D1264404E0FE
:1040C00019F8010B52460D999047641EF8D257E03B
:1040D00001CF4FF00A0B002802DA40422D2102E006
:1040E000210504D52B218DF82410012103E0E107DF
:1040F00005D02021F7E70DF1200908910CE00021FF
:10410000F9E701CF4FF00A0BF9E75946FCF72BFA14
:1041100001F1300209F8012D0028F6D1ADEB0900BC
:1041200000F1200B600701D44FF00108D84502DDF3
:10413000A8EB0B0000E000208046002406E009A860
:104140005246005D0D999047641C761C0898844285
:10415000F5DB04E0302052460D999047761CB8F10B
:104160000001A8F10108F5DC05E019F8010B524641
:104170000D999047761CBBF10001ABF1010BF4DC0B
:104180006D1C34E70928010008B500F03FF90C4C1C
:104190000C4D642600900A21684601F067FB2068F8
:1041A000FCF7F2FCB5F90400616890FBF6F00844F6
:1041B000606001220021A06800F066F9EBE70000D2
:1041C000000200201402002009480A49027812B1B6
:1041D000D1F8142222B1D1F81412012904D005E03B
:1041E00000210170012070470121017000207047FB
:1041F000200000200000414208B500F007F94FF40C
:10420000FA7400902146684601F030FB00F00AF88D
:10421000FFF7D6FCFFF7E6FDFFF754FDFFF7D4FDEF
:10422000F0E70000F0B5404C7B2004F8380F7D200B
:10423000A0753E48D0ED001A3D4890ED001A3D486B
:10424000D0ED000A3C4890ED000AFDF7A7FF3B487F
:104250003C4FB0F902506581018849420BB2A381FD
:10426000B0F904203648E281B0F9021021820688B4
:10427000764236B266823F78383CEFB30020A4F82D
:104280004C003148DFED310A90ED000A20EE200AA3
:10429000BDEEC00A10EE100AA4F8400094F838C031
:1042A00084F800C06770678F4FEA172E84F802E029
:1042B000E770A78F4FEA172E84F804E06771E78F45
:1042C0004FEA172E84F806E0E771214FC4F818C0B2
:1042D0003F684FEA272CC4E907C794F84E7067621D
:1042E0002F0A277265721D0AA572E372130A2373DF
:1042F00062730A0AA27300E014E0E173310A2174C8
:104300006674B4F84C100A0AA274E174010A2175AB
:10431000607501211620FCF779FEA07594F84E0017
:10432000E075F0BD8088AAE74402002060560020B6
:1043300044560020285600200C5600201A02002067
:10434000140200203C0100201800002000007A44E4
:104350000402002010B504460420FEF749FE0A4876
:104360004FF47A71047014FB01F1012242804FF086
:10437000E020026942F0020202614161016941F0FC
:104380000101016110BD0000AC00002070B50446C1
:1043900002F012F801280CD0094D6888844203D33A
:1043A000B4FBF0F001F02CFA6888B4FBF0F100FBEC
:1043B00011444FF47A706043BDE8704000F002B8D9
:1043C000AC00002070B54FF0E02500216C69094A6F
:1043D000AB6912785043AA699A42FCD002D2A3EB8F
:1043E000020302E0A4EB020633441944134681425F
:1043F000F1D370BDAC00002003490A885206FCD5F9
:10440000C2B28A80704700000010014010B501F070
:10441000D3FF012803D0BDE8104001F0DBBF014805
:10442000406810BDAC000020054C064DD4F8B80221
:10443000C043C4F8B802286801F0E2F9F6E70000CA
:1044400000804142340000201CB500F065FE0749A1
:104450000120CDE900010202002305A1074801F077
:104460007FFF01F083FB00201CBD00000000002046
:1044700073746172745F7461736B0000095000089B
:10448000002800DA40427047002813D00A4800EEA6
:10449000902A4068F8EEE00A081A00EE100A084870
:1044A000B8EEC00A20EE800ADFED040A80EE201A82
:1044B00080ED001A704700000002002000401C46FA
:1044C000600100202DE9F041184E0F460446F568C2
:1044D0003068001D01F00AF838B9306890F82C10E7
:1044E00001208840316981433161601C07D137B1B7
:1044F0003168BDE8F0410E48091D01F02FB8306861
:104500002C44AC424460316805D2B06BBDE8F04148
:10451000091D01F00BB8706B091D01F007F8B06AB6
:10452000844200D2B462BDE8F0810000C8000020DF
:10453000C40500202DE9F041054601F01BF82D4E81
:10454000B068401CB06030682B4F10B1706930B358
:104550002BE03560B068012827D1002404EB8400EB
:1045600007EB800000F0D4FF641C202CF6D3234816
:1045700000F0CEFF2148143000F0CAFF1F48283059
:1045800000F0C6FF1D483C3000F0C2FF1B48503011
:1045900000F0BEFF194870631430B06305E0306866
:1045A000E96AC06A884200D83560706A0121401CFF
:1045B00070626864E86A326981401143316100EBDE
:1045C000800007EB8000291D00F0C8FF01F00EF805
:1045D000706900280CD03068E96AC06A884207D246
:1045E00007494FF080500860BFF34F8FBFF36F8FC4
:1045F000BDE8F081C8000020F4020020740500200E
:1046000004ED00E010B500F0B5FF0E4C2068A0B935
:104610000D4800F07DFF0C48143000F079FF0A4887
:10462000E0601430206100221021052001F0CEFB53
:10463000206010B105A101F0AFF8BDE8104000F016
:10464000D5BF000004010020D8050020546D725130
:104650000000000070B5124E124D1CE001F0D0FABF
:10466000306820B1002401F0D5FFA4B901E0012495
:10467000F9E700F07FFFF068C468201D00F036FF06
:10468000A868401EA8606868401E686000F0AEFF21
:10469000204600F052F868680028DFD170BD0000A5
:1046A000B0050020C800002030B4026C0B46002A80
:1046B0000BD0C1681144C1604468A14201D30168B4
:1046C000C16030BC1846FBF7D7BD30BC70472DE940
:1046D000F041856B174604460026026C82B1C7B1D3
:1046E000E068FBF7C9FDE168206C091AE160226807
:1046F000914202D26168081AE060022F16D017E0DA
:104700002068A8B9606801F0DFFE064600206060FE
:104710000EE0A068FBF7B0FD216CA0680844A06023
:104720006168884204D32068A06001E005B16D1E75
:104730006D1CA5633046BDE8F08110B50446006BE2
:1047400000F086FF2046BDE8104000F081BF000069
:1047500010484FF4A041420706D0C01D0D4920F07B
:104760000700411AC1F5A0410B4A00230144C2E9E8
:1047700000030839103A21F0070111604B600B600B
:104780000B1AC0E9001393604FF000405360D060F3
:10479000704700000006002034010020074E4FF053
:1047A0008054074DFFF756FF30680128FAD92C6076
:1047B000BFF34F8FBFF36F8FF4E70000F4020020C8
:1047C00004ED00E02DE9F047DDE909840E461746C7
:1047D000824691009946089DA522206BFBF75EFD5D
:1047E0006FF00301206B01EB8701084420F00707FD
:1047F000780705D040F22B3219A11EA0FFF7C8FBA5
:1048000000202218315C82F83410315C11B1401C58
:104810001028F6D3002684F84360202D00D31F25EE
:10482000E562C4E91356201D00F07DFE04F1180076
:1048300000F079FE2461C5F120006462A061666524
:1048400084F858604A465146384600F00FFB206015
:10485000B8F1000F01D0C8F80040BDE8F0870000B3
:104860002E2E5C4672656552544F535C7461736BB7
:10487000732E63004572726F723A25732C25640D96
:104880000A00000030B5114900E011460A68824272
:10489000FBD34B685C18844203D1406818444860DD
:1048A000084643681C18944209D1084C103C2468FF
:1048B000A24209D052681A4442600A681268026033
:1048C000814200D0086030BD0460F9E73401002067
:1048D00070B5002441600B4D0061914206D8D11A99
:1048E0008269914206D2011D286907E09A4203D2EB
:1048F000994201D3012403E0011DE86800F016FE8F
:10490000204670BD0401002010B5044600F032FEC0
:10491000A06B20B1002400F069FE204610BD0124E8
:10492000F9E700002DE9F34100980F460026846C5A
:104930002CB940F6CE1216A11AA0FFF729FBA06BE6
:10494000E16B884205D340F6CF1211A115A0FFF705
:104950001FFBA06BE16B88420CD294F945503A469C
:1049600069462046FFF7B3FE0646681C05D06D1C5D
:1049700084F845503046BDE8FC81606A0028F9D0D3
:1049800004F1240001F0FAFD0028F3D00126F1E73C
:104990002E2E5C4672656552544F535C7175657579
:1049A000652E63004572726F723A25732C25640D73
:1049B0000A000000F8B5054614480E46C068C068F5
:1049C000C468201D00F092FDE069012817D1A0699C
:1049D0002B46411932462046FFF77AFF78B1002076
:1049E0000346014600902A46204601F0F9FE30B900
:1049F00007494FF4027201F11800FFF7C9FA616A22
:104A000001B02046BDE8F040084700000401002046
:104A10004467000870B586B02F4E53E00198002817
:104A200006DADDE90301029A90470198002849DB84
:104A3000039C606910B1201D00F058FD05A800F02E
:104A4000A7F8054601980A283CD2DFE800F00505E2
:104A5000053B273805053B270298A1690346014419
:104A60002A462046FFF734FF00282BD0616A2046F3
:104A70008847E069012825D1002000900298A169AB
:104A8000002342181946204601F0AAFED0B940F290
:104A9000213212A117A0FFF77BFA13E00298A06160
:104AA00028B94FF44E720DA112A0FFF771FAA06958
:104AB0002B4641191A462046FFF70AFF02E020461E
:104AC00000F0C6FD00231A4601A9306801F0BAF9CA
:104AD0000028A3D106B070BD040100202E2E5C4634
:104AE00072656552544F535C74696D6572732E63C1
:104AF000000000004572726F723A25732C25640D18
:104B00000A000000F8B50D46064601F079F868463F
:104B100000F03EF80446009810B101F07BFDF8BDAE
:104B20001148ADB101690968D9B10025311B2A4688
:104B3000006800F043FE01F06DFD0028EFD10B4945
:104B40004FF080500860BFF34F8FBFF36F8FF8BDF9
:104B5000A642EBD801F05EFD21463046FFF72AFF62
:104B6000F8BD0125E2E700000401002004ED00E0AB
:104B70000648416B096829B1416BC968C968496831
:104B8000816270474FF0FF31FAE70000C800002053
:104B900070B5054601F01EFC064E0446B06884421E
:104BA00003D200F009F8012000E000202860204630
:104BB000B46070BD04010020F8B5184E26E0C0684E
:104BC000C4680568201D00F091FC616A2046884792
:104BD000E06901281AD1A0692844A84206D92461B5
:104BE0006060211DF06800F0A1FC0FE0002003468A
:104BF000014600902A46204601F0F2FD30B90849EE
:104C000040F2923201F11800FFF7C2F9F068016832
:104C10000029D4D13169C6E90310F8BD0401002090
:104C20004467000808484068401C05D040F20F1255
:104C300006A111A0FFF7ACF9502080F31188BFF353
:104C40004F8FBFF36F8FFEE7180100202E2E5C46BA
:104C500072656552544F535C706F727461626C651B
:104C60005C525644535C41524D5F434D34465C7038
:104C70006F72742E630000004572726F723A257372
:104C80002C25640D0A000000084CE068016839B169
:104C9000002139B10020FFF735FFFFF7BBFEF4E735
:104CA0000121F6E7C0680068F5E700000401002074
:104CB0002DE9F041044600F05DFC94F9455004F103
:104CC000240610E0A06C20B100212046FFF72AFE48
:104CD00004E0606A48B1304601F050FC08B100F0D1
:104CE00081FE6D1E6DB2002DECDC4FF0FF3684F8B6
:104CF000456000F07BFC00F03DFC94F9445004F169
:104D0000100709E0206948B1384601F037FC08B1C6
:104D100000F068FE6D1E6DB2002DF3DC84F8446077
:104D2000BDE8F04100F062BC08B5FFF76FFB0090F2
:104D30000A21684600F09AFDFDF7B2FBF8E7000093
:104D40002DE9F0410546002600F05AFF324F386841
:104D500008B9FFF7FDFCF86805424FD1002D4DD092
:104D6000083568070BD005F00700C0F108000544BE
:104D7000680704D0BF2229A132A0FFF709F9002D4E
:104D80003CD07868854239D82349103108460468F8
:104D900001E0214604466068A84202D2206800284B
:104DA000F7D13868B846844228D00E682068086079
:104DB00060680836401B10280ED96719780704D0A0
:104DC000EC2216A11FA0FFF7E3F86068401B786093
:104DD00038466560FFF756FD6168D8F80400424622
:104DE000401AC8F80400D8F80830984200D2906001
:104DF000D8F80C0001430020C4E9000101F00AFCCE
:104E0000700705D04FF4967204A10EA0FFF7C0F80A
:104E10003046BDE8F0810000240100202E2E5C46C3
:104E200072656552544F535C706F727461626C6549
:104E30005C4D656D4D616E675C686561705F342EB9
:104E4000630000004572726F723A25732C25640D61
:104E50000A0000000449086818B10868026D521C75
:104E60000265086870470000C800002010B5031FE5
:104E70004FF080741C601B1F21F001011960191F85
:104E8000044B0B6014390A60091F6FF002024438AA
:104E90000A6010BD254C0008204800B590ED030ABB
:104EA000BDEEC00A10EE100AFFF7EAFA4FF4FA63FB
:104EB00000221B49984220D81A4890ED030ABDEE03
:104EC000C00A10EE100AFFF7DBFA984215D8164810
:104ED00090ED030ABDEEC00A10EE100AFFF7D0FAFB
:104EE00098420AD8114890ED030ABDEEC00A10EEB0
:104EF000100AFFF7C5FA98420DD94878401CC0B295
:104F000048700F2806D90A48C0F81022094A012023
:104F10001070486000BD4A7000BD00000C560020B3
:104F20008C010020285600204456002060560020A6
:104F3000000042423C01002008B5FFF767FADFF8A5
:104F4000ACB02B4E2B4F2C4D4FF001094FF0000809
:104F50004FF0020A009000246421684600F086FCAD
:104F6000DBF80000322801DA484603E03338312804
:104F700002D24046C6F8AC02A86801280BD0E86807
:104F8000012808D06868052809DA401C68600528EF
:104F900005DA484606E04046C5F80480F5E70528EE
:104FA00002D14046C6F8AC02FCF7BEFBD7ED000AC2
:104FB000641C642C30EE200A87ED000AF4DB1048F4
:104FC000DFED0E0A80EE201A9FED0E0A80ED001A2A
:104FD00087ED000AA868012801D1C5F808A0E86893
:104FE0000128B8D1C5F80CA0B5E70000A401002045
:104FF000008041421C000020EC0100200000C8425B
:1050000018000020000000002DE9FC4100F0B2FA79
:1050100000240426CDE900644FF40078234642467C
:105020001EA1224801F09CF90325CDE90054B701E7
:1050300000233A461EA1224801F092F9CDE900541E
:10504000002342461FA1224801F08AF9CDE900540D
:10505000002380221FA1224801F082F9CDE90064DB
:1050600000233A461FA1224801F07AF9CDE90064F5
:10507000002342461FA1224801F072F9CDE90054F5
:10508000002380221FA1224801F06AF9214800680C
:1050900000F042FCBDE8FC4100F0A8BA42616C613E
:1050A0006E63655F7461736B00000000590900084E
:1050B0004D5055363035305F7461736B0000000021
:1050C000591E000873686F775F7461736B0000008E
:1050D000394F00086C65645F7461736B00000000F9
:1050E00029440008505354574F5F7461736B00009C
:1050F000294D0008444154415F7461736B00000006
:10510000F941000862727573685F7461736B000027
:10511000894100080000002038B54FF44070FDF7C9
:10512000BDF8A820FFF716F9FBF70CFDFCF7E4FD2E
:10513000FBF74EFDFBF7F0FFFCF7B6FD4FF4E13453
:10514000204600F051F8204600F054F94FF4165074
:1051500000F0A0F8204600F0F5F8002000900323AE
:10516000062207210120FBF74DFDFBF7A5FBFDF70C
:105170000FFDFBF7E9FFFCF755F8FCF7B1F8FCF77A
:105180000DF9FCF725FF002144F29F10FCF782FF88
:10519000FCF716FBFCF70BFEA72142F20F70FEF79F
:1051A000CBF8FDF759F94FF4FA70FFF70BF9BDE8AA
:1051B0003840FDF737BAB4EEE00AF1EE10FA02D249
:1051C000B0EE600A7047B4EEC10AF1EE10FAF9DDF4
:1051D000B0EE410A7047884201DA084670479042B3
:1051E000FCDD104670470000F0B50746012187B08E
:1051F0000846FDF737FB01211020FDF74BFB234E3E
:10520000072209213046FCF763F907220A213046BC
:10521000FCF75EF94FF4C060049002208DF8140092
:1052200000248DF816408DF8150001258DF81750D3
:1052300004A93046FCF710F925208DF818008DF8E8
:1052400019508DF81A408DF81B5006A8FCF7F4FF92
:10525000ADF80440ADF80640ADF80840ADF80C409C
:105260000C200B4CADF80A00009769462046FEF76B
:1052700009FE012240F225512046FEF7EAFD0121F8
:105280002046FEF7BDFD07B0F0BD00000000024063
:10529000001001402DE9F041804688B0012108202E
:1052A000FDF7E0FA01214804FDF7E8FA234F072251
:1052B00005213846FCF70CF9072206213846FCF791
:1052C00007F902258DF81450002460208DF816404F
:1052D00004908DF8155001268DF8176004A9384602
:1052E000FCF7BAF826208DF818008DF819508DF8C3
:1052F0001A408DF81B6006A8FCF79EFFADF804402D
:10530000ADF80640ADF80840ADF80C400C200C4C50
:10531000ADF80A00CDF8008069462046FEF7B2FDE0
:10532000012240F225512046FEF793FD012120463F
:10533000FEF766FD08B0BDE8F0810000000C0240F9
:10534000004400402DE9F041804688B00121022050
:10535000FDF788FA01218804FDF790FA234F072210
:105360000A213846FCF7B4F807220B213846FCF72F
:10537000AFF802258DF8145000244FF440608DF8EA
:10538000164004908DF8155001268DF8176004A979
:105390003846FCF761F827208DF818008DF8195071
:1053A0008DF81A408DF81B6006A8FCF745FFADF894
:1053B0000440ADF80640ADF80840ADF80C400C20B4
:1053C0000B4CADF80A00CDF8008069462046FEF788
:1053D00059FD012240F225512046FEF73AFD0121F8
:1053E0002046FEF70DFD08B0BDE8F0810004024044
:1053F00000480040F0B5074687B001210420FDF7C2
:1054000031FA0121C804FDF739FA234E08220A2196
:105410003046FCF75DF808220B213046FCF758F8BF
:105420004FF44060049002208DF8140000248DF8A1
:1054300016408DF8150001258DF8175004A9304647
:10544000FCF70AF834208DF818008DF819508DF803
:105450001A408DF81B5006A8FCF7EEFEADF804408C
:10546000ADF80640ADF80840ADF80C400C200B4CF0
:10547000ADF80A00009769462046FEF703FD0122B9
:1054800040F225512046FEF7E4FC01212046FEF7BC
:10549000B7FC07B0F0BD000000080240004C00401F
:1054A0000249888008884006FCD5704700100140FA
:1054B00003490880081F01884906FCD57047000091
:1054C0000444004003490880081F01884906FCD5B0
:1054D000704700000448004003490880081F018805
:1054E0004906FCD570470000044C0040D0E9013269
:1054F00001699A60D0E901235A604A68824201D169
:1055000082684A60002202610868401E0860704795
:1055100000F108014FF0FF32C0E90112C1600161E2
:1055200000210160704700210161704730B50C68AF
:10553000621C02D000F1080202E0026904E01A468F
:1055400053681D68A542FAD953684B6099608A6018
:10555000516008610168491C016030BD42684A60C1
:1055600093688B6093685960916008610168491C79
:1055700001607047502080F31188BFF34F8FBFF355
:105580006F8F09494868401C486001280AD10748C4
:10559000006810F0FF0F05D040F2B91204A10FA06F
:1055A000FEF7F6BC704700001801002004ED00E093
:1055B0002E2E5C4672656552544F535C706F727448
:1055C00061626C655C525644535C41524D5F434D81
:1055D00034465C706F72742E630000004572726F07
:1055E000723A25732C25640D0A00000010B5084C92
:1055F000606828B94FF4E07206A111A0FEF7C8FC5C
:105600006068401E606001D180F3118810BD000009
:10561000180100202E2E5C4672656552544F535C73
:10562000706F727461626C655C525644535C415297
:105630004D5F434D34465C706F72742E6300000002
:105640004572726F723A25732C25640D0A000000B2
:1056500070B500282AD0164DA0F108046068E968EA
:10566000084205D14FF4A07212A11CA0FEF790FCD5
:10567000206828B140F241120EA118A0FEF788FC64
:105680006068E968084211D02268002A0ED1884378
:10569000606000F0B5FA6068696808446860204698
:1056A000FFF7F0F8BDE8704000F0B4BF70BD000037
:1056B000240100202E2E5C4672656552544F535CC7
:1056C000706F727461626C655C4D656D4D616E6783
:1056D0005C686561705F342E630000004572726F14
:1056E000723A25732C25640D0A00000006484FF419
:1056F0007A710068B0FBF1F14FF0E020491E416182
:1057000007210161704700000400002010B5FAF77E
:105710009DFD104C10280CD300F1E02090F8F00310
:105720002178884205D24FF440720BA115A0FEF7F4
:105730002FFC18480068A16800F4E060884207D98F
:10574000BDE810404FF4447203A10EA0FEF720BC48
:1057500010BD0000180100202E2E5C4672656552B7
:10576000544F535C706F727461626C655C52564446
:10577000535C41524D5F434D34465C706F72742EE2
:10578000630000004572726F723A25732C25640D18
:105790000A0000000CED00E010B5074B002253F8A2
:1057A00032401CB1521C082AF9D310BD43F8321004
:1057B00003EBC201486010BDB402002070B515466D
:1057C0000E460446FFF7D6FE94F944100020491C0B
:1057D00001D184F8440094F94510491C01D184F8A2
:1057E0004500FFF703FFA06B28B92A46314604F1B4
:1057F000240000F027F92046BDE87040FFF758BAB2
:1058000010B5040012D00E49096B29B140F2CF4205
:105810000CA111A0FEF7BCFB00F0F2F9002120461C
:10582000FEF750FE00F0F6FE002807D10E494FF0BB
:1058300080500860BFF34F8FBFF36F8F10BD000023
:10584000C80000202E2E5C4672656552544F535C92
:105850007461736B732E63004572726F723A2573B5
:105860002C25640D0A00000004ED00E02DE9F04154
:105870000E4605004FF0000405D140F279421BA10D
:105880001FA0FEF785FB2EB940F27A4217A11CA09B
:10589000FEF77EFB1E4F386B28B140F27B4213A10E
:1058A00017A0FEF775FB00F0ABF9FA6828688119BC
:1058B000904202D9884202D804E0884201D891423D
:1058C00000D9012429601CB1881A0021FEF7FAFDD5
:1058D00000F0A0FE002807D10E494FF0805008606C
:1058E000BFF34F8FBFF36F8FBDE8F0812E2E5C4664
:1058F00072656552544F535C7461736B732E630011
:105900004572726F723A25732C25640D0A000000EF
:10591000C800002004ED00E070B50446FFF72AFE41
:10592000234D04B92C68201DFFF7E0FD58B9E06A4B
:10593000204A00EB800152F8211021B90121814059
:10594000286988432861A06A18B104F11800FFF79C
:10595000CDFD686A401C68622868844207D1211D19
:105960001548FFF7FBFD6868401C686007E0A86801
:10597000401EA8602046FEF7E0FEFFF7F9F8FFF7AB
:1059800035FE6869002812D0286884420FD1286B40
:1059900028B140F2654209A10DA0FEF7F9FA1049BD
:1059A0004FF080500860BFF34F8FBFF36F8F70BD13
:1059B000C8000020F4020020B00500202E2E5C4616
:1059C00072656552544F535C7461736B732E630040
:1059D0004572726F723A25732C25640D0A0000001F
:1059E00004ED00E001490120C8617047C8000020B3
:1059F00070B50D46040005D140F6063207A10CA093
:105A0000FEF7C6FA0E48016820461831FFF78EFDF2
:105A10002846BDE870400121FEF754BD2E2E5C469D
:105A200072656552544F535C7461736B732E6300DF
:105A30004572726F723A25732C25640D0A000000BE
:105A4000C800002070B514460E46050005D140F68A
:105A5000313209A10DA0FEF79BFA104801682846D3
:105A60001831FFF77BFD0CB14FF0FF362146304671
:105A7000BDE87040FEF726BD2E2E5C46726565526D
:105A8000544F535C7461736B732E63004572726F75
:105A9000723A25732C25640D0A000000C80000200E
:105AA00070B5040039D01D4DE06A2968C96A884282
:105AB00033D2A069002804DB2868C06AC0F1200046
:105AC000A061E06A164E00EB8000616906EB800081
:105AD00081421FD1201DFFF709FD012150B9E06A65
